{
  "contractName": "Certif",
  "abi": [
    {
      "constant": true,
      "inputs": [],
      "name": "getCertif",
      "outputs": [
        {
          "internalType": "string[]",
          "name": "",
          "type": "string[]"
        }
      ],
      "payable": false,
      "stateMutability": "view",
      "type": "function"
    },
    {
      "constant": false,
      "inputs": [
        {
          "internalType": "string",
          "name": "value",
          "type": "string"
        }
      ],
      "name": "addCertif",
      "outputs": [],
      "payable": false,
      "stateMutability": "nonpayable",
      "type": "function"
    },
    {
      "constant": true,
      "inputs": [],
      "name": "getLength",
      "outputs": [
        {
          "internalType": "uint256",
          "name": "",
          "type": "uint256"
        }
      ],
      "payable": false,
      "stateMutability": "view",
      "type": "function"
    }
  ],
  "bytecode": "0x608060405234801561001057600080fd5b5061056b806100206000396000f3fe608060405234801561001057600080fd5b50600436106100415760003560e01c8063305d741214610046578063be1c766b14610062578063f908bac614610080575b600080fd5b610060600480360361005b91908101906102ce565b61009e565b005b61006a6100e0565b6040516100779190610402565b60405180910390f35b6100886100ec565b60405161009591906103e0565b60405180910390f35b60008190806001815401808255809150509060018203906000526020600020016000909192909190915090805190602001906100db9291906101d5565b505050565b60008080549050905090565b60606000805480602002602001604051908101604052809291908181526020016000905b828210156101cc578382906000526020600020018054600181600116156101000203166002900480601f0160208091040260200160405190810160405280929190818152602001828054600181600116156101000203166002900480156101b85780601f1061018d576101008083540402835291602001916101b8565b820191906000526020600020905b81548152906001019060200180831161019b57829003601f168201915b505050505081526020019060010190610110565b50505050905090565b828054600181600116156101000203166002900490600052602060002090601f016020900481019282601f1061021657805160ff1916838001178555610244565b82800160010185558215610244579182015b82811115610243578251825591602001919060010190610228565b5b5090506102519190610255565b5090565b61027791905b8082111561027357600081600090555060010161025b565b5090565b90565b600082601f83011261028b57600080fd5b813561029e6102998261044a565b61041d565b915080825260208301602083018583830111156102ba57600080fd5b6102c58382846104d5565b50505092915050565b6000602082840312156102e057600080fd5b600082013567ffffffffffffffff8111156102fa57600080fd5b6103068482850161027a565b91505092915050565b600061031b8383610398565b905092915050565b600061032e82610486565b61033881856104a9565b93508360208202850161034a85610476565b8060005b858110156103865784840389528151610367858261030f565b94506103728361049c565b925060208a0199505060018101905061034e565b50829750879550505050505092915050565b60006103a382610491565b6103ad81856104ba565b93506103bd8185602086016104e4565b6103c681610517565b840191505092915050565b6103da816104cb565b82525050565b600060208201905081810360008301526103fa8184610323565b905092915050565b600060208201905061041760008301846103d1565b92915050565b6000604051905081810181811067ffffffffffffffff8211171561044057600080fd5b8060405250919050565b600067ffffffffffffffff82111561046157600080fd5b601f19601f8301169050602081019050919050565b6000819050602082019050919050565b600081519050919050565b600081519050919050565b6000602082019050919050565b600082825260208201905092915050565b600082825260208201905092915050565b6000819050919050565b82818337600083830152505050565b60005b838110156105025780820151818401526020810190506104e7565b83811115610511576000848401525b50505050565b6000601f19601f830116905091905056fea365627a7a7231582078d504a85f9aadc7ee4107e7d02d8fade0a00eaf9219bf946e2f474fb8ff6ec56c6578706572696d656e74616cf564736f6c63430005100040",
  "source": "// SPDX-License-Identifier: UNLICENSED\npragma solidity >=0.4.22 <0.9.0;\npragma experimental ABIEncoderV2;\n\n\ncontract Certif {\n    \n    string[] certif;\n    \n    function getCertif() public view returns (string[] memory) {\n        return certif;\n    }\n\n    function addCertif(string memory value) public {\n        certif.push(value);\n    }\n    \n    function getLength() public view returns (uint) {\n        return certif.length;\n    }\n\n}",
  "sourcePath": "/home/saroui/Projet2/contracts/Certif.sol",
  "compiler": {
    "name": "solc",
    "version": "0.5.16+commit.9c3226ce.Emscripten.clang"
  },
  "schemaVersion": "3.3.4",
  "updatedAt": "2021-02-27T22:10:39.234Z",
  "networkType": "ethereum",
  "devdoc": {
    "methods": {}
  },
  "userdoc": {
    "methods": {}
  }
}